:0410000044EF13F0B6
:08100800F76A1C0FF66E100ED2
:10101000F722000EF86E0900F550120000000000E3
:101020000000005F00000003000300143E143E14A3
:10103000242A7F2A1243330866613649552250001C
:1010400005030000001C2241000041221C0014087E
:101050003E081408083E0808005030000008080840
:101060000808006060000020100804023E51494555
:101070003E0004027F0042615149462241494936FF
:101080001814127F1027454545393E494949320118
:10109000017109073649494936264949493E003612
:1010A00036000000563600000814224100141414C3
:1010B0001414004122140802015109063E415955F9
:1010C0005E7E0909097E7F494949363E41414122F8
:1010D0007F4141413E7F494949417F090909013E1C
:1010E0004141493A7F0808087F00417F4100304074
:1010F00040403F7F081422417F404040407F020C27
:10110000027F7F0204087F3E4141413E7F09090979
:10111000061E2121215E7F0909097600F76A300F3A
:10112000F66E110EF722000EF86E0900F55012004F
:10113000264949493201017F01013F4040403F1F9C
:101140002040201F7F2010207F41221C22410708C1
:101150007008076151494543007F410000020408BF
:1011600010200000417F0004020102044040404082
:1011700040000102040020545454787F4444443811
:101180003844444444384444447F38545454180444
:10119000047E0505085454543C7F08040478004438
:1011A0007D40002040443D007F1028440000417FE6
:1011B00040007C047804787C080404783844444473
:1011C000387C14141408081414147C007C080404DB
:1011D000485454542004043F44443C4040207C1C68
:1011E0002040201C3C4030403C44281028440C50F7
:1011F00050503C4464544C44000836414100007F48
:101200000000414136080002010204021E0FF66E82
:10121000120EF722000EF86E0900F55012000000C1
:1012200000000000000000000000000000000000BE
:1012300000000000000000000000000000000000AE
:10124000000000C0C0C000000000000000003030FE
:1012500070E0E0E0E060606060626286CE8CB4F4D2
:10126000F4F8E8687868687878D8D8180C0404042A
:10127000040C1C1898D8D8D8D8D0B0B07070707042
:1012800060E0E060C0C0000000000000000000005E
:10129000000000000000000000000000000000004E
:1012A000000000000000000000000000000000003E
:1012B00000000000000008081830303030B0D0D0F6
:1012C00050505050D8C96B6B1F0D0D050505B9B9AD
:1012D000CD4444404747CBCB591111657D5D96966F
:1012E0009434342727262426AEA6A66BEB8A10104A
:1012F00018686834B48484844C5454F4EEAEBABA9A
:101300001A4E4E6F6E6C5B5B56969696161414349E
:1013100024646488181828E8E838380000000000C1
:101320000000000000004040C0C0C04040404141BB
:10133000412327BAFE7E3E3626F6F6E3F7BF8080CD
:1013400080E0E039390D0707038686FAFE7F4141C8
:10135000404060E0F0703F3F18181818F8F01C1D6E
:101360000D010101010D0D0D0D07030161609CDCF4
:10137000CEE7F739F9CC4E4E5B9B9B8CBCBC2D3D28
:101380001D797B5B3626ECECAC5858F9B333AEAE26
:101390006C3C3C1D0606010100000000000000003E
:1013A000001818282828A4A4C4F2B28D8F87868636
:1013B000868585E4F4742C2C2320202060F09A9AF2
:1013C00087838342C2C262623F3333101010D0D091
:1013D000701E1E0B0B08080888FCFC848783828221
:1013E00082C242E2FFDF41C1C0C0406070309B9BBF
:1013F0004041412725242969499191363F2FCA5AF6
:10140000521E1E3CE4E414140C0000010101000013
:1014100000000000000000000000000000000000CC
:1014200000000000000001013C1B13111111D1D973
:10143000391F1F1110101010D0FCFE4743434141CB
:10144000C14141383F2F20201090907078180F0F25
:1014500006060606FEFC070703010191BBBFD1D1BA
:10146000711010DBF929FFFFE118180703030100D1
:101470000000000000000000000F0F0636361E1EA0
:101480000B080C0603030000000000000000000031
:10149000000000000000000000000000000000004C
:1014A0000000000000000000000000000202030332
:1014B000010101C1E1F16F6F606060606060F0F098
:1014C0001F3030303030381808FDFD0E0E04848493
:1014D000868282C3C3E1FFFF01F1F1191D04070FEA
:1014E0007C0303000000000000000000000000007A
:1014F00000000000000000000000000000000000EC
:1015000000000000000000000000000000000000DB
:1015100000000000000000000000000000000000CB
:1015200000000000000000000000000000000000BB
:101530000000000000000000000000001E1E09095D
:1015400008080808F8F80808060303C2C2427F7FAB
:10155000E1393904060203030F0000000000000017
:10156000000000000000000000000000000000007B
:10157000000000000000000000000000000000006B
:10158000000000000000000000000000000000005B
:10159000000000000000000000000000000000004B
:1015A000000000000000000000000000000000003B
:1015B000000000000000000000000000000000002B
:1015C0000000000000001F1F3E030100000000009B
:1015D0000300000000000000000000000000000008
:1015E00000000000000000000000000000000000FB
:1015F00000000000000000000000000000000000EB
:1016000000000000000000000000000000000000DA
:10161000000000000000000000000000000047750E
:10162000696C6C65726D6F206163657665646F00CF
:1016300057616C746572204D6F72656E6F006F6CD0
:1016400061206B206173656E000057696E7465726E
:1016500020697320636F6D696E67000095908C90B0
:1016600095928C9295948C9495968C9695988C984E
:10167000959A8C9A959C8C9C959E8C9E94928B921C
:101680000401D05303E096908D8002D0949E8B8EFF
:10169000030E006E002EFED700D0D1A103D095908E
:1016A0008C8002D095908C90D1A303D095928C829F
:1016B00002D095928C92D1A503D095948C8402D0BF
:1016C00095948C94D1A703D095968C8602D095964C
:1016D0008C96D1A903D095988C8802D095988C9837
:1016E000D1AB03D0959A8C8A02D0959A8C9AD1ADC1
:1016F00003D0959C8C8C02D0959C8C9CD1AF03D050
:10170000959E8C8E02D0959E8C9E030E006E002EB0
:10171000FED700D094948B84030E006E002EFED76B
:1017200000D094948B94949E8B9E96908D90000103
:1017300012000401D56BBB0ED46F020ED76FBB0E27
:10174000D66FD251FF0DF3CFD3F4D96BD86BD951EB
:1017500001081AE3D5C403F0D451D42BD8B4D52B47
:10176000E96E03C0EAFFD3C4EFFFD7C403F0D6513C
:10177000D62BD8B4D72BE96E03C0EAFFD3C4EFFF52
:10178000D82BD8B4D92BE3D7000112000401CC6BBD
:10179000BB0ECB6F020ECE6FBB0ECD6FC96BC951A6
:1017A00007084EE396928D92D06B400ED16F0001E8
:1017B00055DF010E0401D06F400ED16F00014EDFE6
:1017C0000401C951B809CF6FD06BD16F000146DF5A
:1017D0000401C951B809CF6F010ED06FCFC4D1F445
:1017E00000013CDF96928D820401CA6BCA513F080A
:1017F00025E3CCC403F0CB51CB2BD8B4CC2BE96E72
:1018000003C0EAFFEFCFCFF4D06BCFC4D1F4000117
:1018100025DF0401CEC403F0CD51CD2BD8B4CE2B9F
:10182000E96E03C0EAFFEFCFCFF4010ED06FCFC453
:10183000D1F4000113DF0401CA2BD8D7C92BAFD7CD
:1018400000011200949C8B8C94948B94949E8B9E9C
:1018500096908D9096928D920401D06BC00ED16FB0
:101860000001FCDE010E0401D06FC00ED16F00013B
:10187000F5DE0401D06B400ED16F0001EFDE010EEA
:101880000401D06F400ED16F0001E8DE0401D06B7F
:10189000B80ED16F0001E2DE010E0401D06FB80E68
:1018A000D16F0001DBDE0401C82D0ED0D06B3F0EDE
:1018B000D16F0001D3DE010E0401D06F3F0ED16F56
:1018C0000001CCDE0DD00401D06B3E0ED16F0001C3
:1018D000C5DE010E0401D06F3E0ED16F0001BEDEE9
:1018E0000401D26B000125DF51DF9BEF13F0BCC474
:1018F000EAFFBBC4E9FF0401D5C4EFFFE92AD8B46D
:10190000EA2AEF6ABB2BD8B4BC2B000112000900F5
:10191000F55210E0F6CFC8F4F7CFC9F4F8CFCAF407
:10192000F5CFD5F4E4DFC8C4F6FFC9C4F7FFCAC4D5
:10193000F8FFEDD712000401DF6BDA31DE6FDE3322
:10194000DE331F0EDE17DE37DF37DE37DF37DE37F9
:10195000DF37DE37DF37DE37DF37DE37DF37C00E22
:10196000DE17D951DE27000EDF23D9513F080DE2E3
:10197000BB0EDE25E06F020EDF21E16F400EE05D61
:10198000DC6F000EE159DD6F06D0BB0EDE25DC6F8B
:10199000000EDF21DD6FDB5315E0DDC403F0DCC496
:1019A000E9FFDDC4EAFFDA51070BE06F010E006EBC
:1019B000E051016E04E0D8900036012EFCD70050B3
:1019C000EF1215D0DDC403F0DCC4E9FFDDC4EAFF8B
:1019D000DA51070BE06F010E006EE051016E04E07A
:1019E000D8900036012EFCD70050FF0AEF160001F8
:1019F0001200CBC403F00401CAC4E9FFCBC4EAFF60
:101A0000EF52D8B4C8D0CBC403F0CAC4E9FFCBC4EA
:101A1000EAFFEF50520822E3CBC403F0CAC4E9FF47
:101A2000CBC4EAFF200EEF5C050DF350036AD76FBD
:101A3000040EEA6ED20EE96EDB6BD7C4DAF4050E43
:101A4000016EF76AD751000104EC08F00A000900A2
:101A5000F5CFEEFF012EFBD732D00401CBC403F04B
:101A6000CAC4E9FFCBC4EAFFEF507E0822E3CBC42F
:101A700003F0CAC4E9FFCBC4EAFF530EEF5C050DC7
:101A8000F350036AD76F040EEA6ED20EE96EDB6B79
:101A9000D7C4DAF4050E016EF76AD75100018EEC57
:101AA00008F00A000900F5CFEEFF012EFBD707D0A2
:101AB0000401D26BD36BD46BD56BD66B0001CBC456
:101AC00003F00401CA51E96E03C0EAFFEF500A0AAD
:101AD000000103E0070A09E00BD00401CC51070D17
:101AE000F350010FC92750D000010401C86B4CD03E
:101AF0000401CC51050DF350C8257F0806E2C86BE0
:101B0000CC51070DF350010FC927CE6BCE510408FD
:101B10003BE3CF6BCF51060833E3036ACE51D20FBC
:101B2000E96E040E0320EA6EEFCFD7F4D7C400F0BD
:101B3000CF51016E04E0D8900032012EFCD700A0F6
:101B40001DD0D06BCC51D05D19E2D16BCC51D15DA1
:101B500013E2D151C825D76FCF51CC03F350C9251B
:101B6000D025D86FD7C4D9F4DA6FCDC4DBF4000127
:101B7000E2DE0401D12BEAD7D02BE4D7CF2BCAD792
:101B8000CE2BCC51C827C2D7CA2BD8B4CB2BC82B4D
:101B900000012FD7040100011200010E0401D16FD2
:101BA000D26FD76BC851CA5DD86FD851D8AF03D0A8
:101BB000000ED880D855036ACF6F03C0D0F4C95146
:101BC000CB5DD86FD851D8AF03D0000ED880D85590
:101BD000036ACD6F03C0CEF4C851CA5D01E2D1697A
:101BE000C951CB5D01E2D269CE51D05D3BE303E147
:101BF000CD51CF5D37E3D890CD37CE37CF51CD5DC6
:101C0000006ED051CE5900C0D3F4D46FCF51D35D04
:101C1000D56FD051D459D66FD05303E1D751CF5D92
:101C200020E3C8C4D9F4C9C4DAF4CCC4DBF400019D
:101C300082DE0401D4BF01D008D0CD51D327CE51CC
:101C4000D423D151C825C86F0AD0D551D327D65136
:101C5000D423D151C825C86FD251C925C96FD72BFC
:101C6000DBD736D0D890CF37D037CD51CF5D006E8F
:101C7000CE51D05900C0D3F4D46FCD51D35DD56FC0
:101C8000CE51D459D66FCE5303E1D751CD5D20E369
:101C9000C8C4D9F4C9C4DAF4CCC4DBF400014BDE07
:101CA0000401D4BF01D008D0CF51D327D051D423C1
:101CB000D251C925C96F0AD0D551D327D651D423C3
:101CC000D151C825C86FD251C925C96FD72BDBD7D1
:101CD00000011200040EEA6EC90EE96EEF500EE02C
:101CE0000F0E016E006A002EFED7012EFBD78F0E5D
:101CF000006E002EFED70000EF2EF2D71200040176
:101D0000C96BC86BCB6BCA6BCD6BCC6BCF6BCE6B1F
:101D1000D16BD06BD26B00010CDD0401C96BC86BB9
:101D2000C95361E1C85107085EE3CB6BCA6BCB5363
:101D300029E1CA513F0826E3CDC403F0CC51CC2B96
:101D4000D8B4CD2BD26F03C0D3F4BB0ED225E96E2D
:101D5000000E0320EA6ED1C403F0D051D02BD8B4CA
:101D6000D12BD66F03C0D7F403C003F0D65103C004
:101D7000F7FF000106EC09F0EF6E0401CA2BD8B49E
:101D8000CB2BD5D7CB6BCA6BCB5329E1CA513F08BC
:101D900026E3CFC403F0CE51CE2BD8B4CF2BD26FD5
:101DA00003C0D3F4BB0ED225E96E020E0320EA6E07
:101DB000D1C403F0D051D02BD8B4D12BD66F03C0EF
:101DC000D7F403C003F0D65103C0F7FF000106ECBF
:101DD00009F0EF6E0401CA2BD8B4CB2BD5D7C82B92
:101DE000D8B4C92B9DD7000153EF14F0010E0401A4
:101DF000C85F0DE3040EEA6EC80EE96EEF5007E00F
:101E0000020E006E002EFED700D0EF2EF9D7000193
:101E100012000401CB51016ACA5D03E2CAC400F09A
:101E20000CD0006A080ECC6FCA370036CB51005C6C
:101E3000D8B0006E0136CC2FF7D70001BAEF14F0FE
:101E40008E0E006EC9C401F0C8C402F0036A0152CC
:101E500009E102C001F0026A080E005E015202E1CF
:101E6000006A08D0D89001BE04D0023601360006C0
:101E7000F9D7019EC1EF14F00401D551D8B471D047
:101E8000006ED951D8B46DD0002604E3810E00262F
:101E900068E204D07F0E005E64E363E0D6C4DDF444
:101EA000DA51DD1BD68FDA8FD851DC03F4CFDFF4A3
:101EB000D751DB03F4CF03F0F3CFDEF4DC03F350B0
:101EC000DF27F450DE23000E0322D851DB03F3504A
:101ED000DF27F450DE23000E026A03220222D651CD
:101EE000DC03F350DE27F4500322000E0222D65109
:101EF000DB03F3500326F4500222000E016A012294
:101F0000D851DA03F350DE27F4500322000E0222E8
:101F10000122D751DA03F3500326F4500222000EB7
:101F20000122D651DA03F3500226F4500122002A8E
:101F300001BE05D0DE370336023601360006000E3C
:101F4000DEAF0AD0032A02220122015005E102502D
:101F500003E1035001E1002ADDBF018EDDAF019EE8
:101F600004D0006A016A026A036A000112000401D7
:101F7000C851D8B4A5D0D46FCC51D8B4A1D0D45FB7
:101F800005E37F0ED427D8B09BD006D0810ED45F56
:101F9000D8A096D0D8B494D0D4C400F0016A026A14
:101FA000036AD36BC9C4D2F4D28FCAC4D1F4CBC4F0
:101FB000D0F4190ED46FCF51D05F0DE2010ED15F76
:101FC0000AE2D25F08E2D35F06E2D32BD22BD12BF9
:101FD000CF51D02728D0CE51D15F12E2010ED25F6F
:101FE0000FE2D35F0DE2D32BD22BCE51D127CF51AD
:101FF000D02719E3D12B17E1D22B15E1D32B13D026
:10200000CD518009D25F0EE2010ED35F0BE2D32BDC
:10201000CD518009D227CE51D127E9E3D22BE7E178
:10202000D32BE5D70380D42F01D00BD0D890D03755
:10203000D137D237D337D890033602360136D53769
:10204000BAD7D5A106D0D890013202320332D533A7
:1020500002D0000635E0D5BF1ED0D890D037D1379A
:10206000D237D337CF51D05F07E2010ED15F04E200
:10207000D25F02E2D35F1AE3CE51D15F05E2010ED7
:10208000D25F02E2D35F12E3CD518009D25F03E257
:10209000010ED35F0BE3032A09E1022A07E1012ABB
:1020A00005E1002A0DE0013202320332C9C4D4F442
:1020B000CD51D41BD4AF02D0018E06D0019E04D0E6
:1020C000006A016A026A036A000112000401D55124
:1020D000B608D56F036AD6C4D9F4D68FD890D63354
:1020E000D733D8330332023201320032D52FF6D73C
:1020F000D9AF0BD0001E011E021E031E002AD8B449
:10210000012AD8B4022AD8B4032A0001FDEF10F046
:10211000D8B204D0040EEA6EDD0EE96E006A016AE0
:10212000026A036A0401DD6BDE6BDF6BE06BDC517E
:10213000DB11DA11D9112CE0200EE16FD890D537E0
:10214000D637D737D837DD37DE37DF37E037DC51E2
:10215000E05D08E1DB51DF5D05E1DA51DE5D02E1C2
:10216000D951DD5D0FE3D951DD5FDA51D8A0DA3DF9
:10217000DE5FDB51D8A0DB3DDF5FDC51D8A0DC3D6A
:10218000E05FD8800036013602360336E12FD6D71D
:10219000DDC4EFFFDEC4ECFFDFC4ECFFE0C4ECFF06
:1021A00000011200E9500401CD6FCC51CF6F1BE04C
:1021B000CBC4D8F4CAC4D7F4C9C4D6F4C8C4D5F4BF
:1021C000DC6BDB6B200EDA6F820ED96F000154DE00
:1021D00003C0CBF402C0CAF401C0C9F400C0C8F403
:1021E0000401CF2FE5D7CBC4D8F4CAC4D7F4C9C4EF
:1021F000D6F4C8C4D5F4000169D703C0CBF402C03B
:10220000CAF401C0C9F400C0C8F40401CBAF0DD0BA
:10221000CD07CD8BC81FC91FCA1FCB1FC82BD8B471
:10222000C92BD8B4CA2BD8B4CB2B3B0ED46F9A0E83
:10223000D36FCA0ED26FD16B0A0ECF6FCC51D8B408
:10224000CD2BD882040EEA6EC80EE96ECBC4D8F44A
:10225000CAC4D7F4C9C4D6F4C8C4D5F4D4C4DCF411
:10226000D3C4DBF4D2C4DAF4D1C4D9F4000150DF12
:102270000150005213E10401CC29CF5DD8A402D053
:1022800000010CD0CD510DE00F0BCF5D01E044E219
:10229000CDBF42D0CDBD05D0200E37D0200E0401D9
:1022A000CD17CDAB0FD0CD9BCC51D8A4CD070050CE
:1022B000CD6F2D0ED56F000177EC0CF00401CD51E0
:1022C000006ECD6BCC51CF5D0DE10050CD6F2E0E69
:1022D000D56F000177EC0CF00401CD51006E200E9B
:1022E000CD17000E300ECDAB10D0CD9BCC51D8A465
:1022F000CD070050CD6F2D0ED56F000177EC0CF09F
:102300000401CD51006ECD6B300E002600C0D5F417
:10231000000177EC0CF00401D892D4C4D8F4D3C4F3
:10232000D7F4D2C4D6F4D1C4D5F4DC6BDB6BDA6B52
:102330000A0ED96F0001ECDE03C0D4F402C0D3F45E
:1023400001C0D2F400C0D1F40401CF2F7AD700012C
:1023500015EF15F0800ED8A202D00401CD1B0401A8
:10236000D26BD36BC9C4D1F4CD51D11BC851D8B4F1
:10237000DFD0D06F006ECC51D8B4E3D0D05FD8B4EA
:1023800083D03EE3CDC4D6F4D68FCEC4D5F4CFC42B
:10239000D4F4D36BD890D633D533D433D333D02FB2
:1023A000F8D7D1AF03D0D281E0D0D291D091D289E9
:1023B000040EEA6ECB0EE96EEBD0D299D1BF0AD0F3
:1023C000D0A113D0D633D533D433D333002AD8B4E5
:1023D000C7D00BD0D6BF0CD0D890D337D437D53791
:1023E000D6370006D8B4BCD0F5D7D28D6DD0D29DEB
:1023F000C9C4D1F4C9AF02D0D68FABD0D69FA9D073
:10240000CCC4D0F4CCC400F0C851D05FC9C4D6F459
:10241000D68FCAC4D5F4CBC4D4F4D36BD890D633FA
:10242000D533D433D333D02FF8D7D1AF03D0D28321
:102430009CD0D293D091D28B040EEA6ECF0EE96E6F
:10244000A7D0D29BD1BF0AD0D0A113D0D633D533D9
:10245000D433D333002AD8B483D00BD0D6BF0CD01A
:10246000D890D337D437D537D6370006D8B478D0FC
:10247000F5D7D28F29D0D29FCDC4D1F4CDAF02D021
:10248000D68F67D0D69F65D0CDC4D6F4D68FCEC4B4
:10249000D5F4CFC4D4F4D1AF04D0D69FD28565D0C3
:1024A000D295D36BD091040EEA6ECB0EE96E70D04C
:1024B000D1BF1CD0C9C4D1F4D0A106D0D633D533F6
:1024C000D433D333002A4CE0D3AF0BD0D42B09E163
:1024D000D52B07E1D62B05E1D633D533D433002AEB
:1024E0003FE0D2BD84D7D2BFC6D71CD0800ED61B4A
:1024F000D6AF04D03AD0CDC4D1F40AD0C9C4D1F4F7
:10250000D65306E1D55304E1D45302E1006A21D049
:10251000D6BF08D0D890D337D437D537D637002E8A
:10252000F7D71ED0D1AF02D0D68F13D0D69F11D0FF
:10253000CCC400F0CDC4D6F4CEC4D5F4CFC4D4F40A
:1025400008D0C8C400F0C9C4D6F4CAC4D5F4CBC4FA
:10255000D4F4D6C401F0D5C402F0D4C403F034D00E
:10256000006A016A026A036A2FD0D36BD41FD51F99
:10257000D61FD31FD32B05E1D42B03E1D52B01E1CB
:10258000D62BD2B112D7D2B354D7D2B589D7B3D7BD
:10259000EF50D42705E3D52B03E1D62BD8B4D08157
:1025A000ED52EF50D52703E3D62BD8B4D081ED52AE
:1025B000EF50EFBE01D0800AD627D8B0D081D2B973
:1025C000FCD6D2BB3ED774D700018EEF15F08E0E2D
:1025D000006E0401C851005EC9C402F0CAC401F013
:1025E000028E005209E0D890025202E1015204E04A
:1025F00002320132002EF7D7C9AF05D0011E021EEC
:10260000012AD8B4022A000197EF15F0C9C4D0F40A
:102610000401CD51D01BD0AF05D0D894D890C9BFFC
:10262000D8802FD0C9C4D0F4CCC4D1F4C851D15F64
:1026300006E0D0AF26D0D850010AD86E22D0CDC443
:10264000D1F4C951D15F06E0D0AF1BD0D850010AF8
:10265000D86E17D0CEC4D1F4CA51D15F06E0D0AF46
:1026600010D0D850010AD86E0CD0CFC4D1F4CB51C1
:10267000D15F06E0D0AF05D0D850010AD86E01D0A6
:10268000D8900001F3EF15F0F86AD09E0E01550EB8
:10269000A76EAA0EA76EBF91140EF76F060ED36F2A
:1026A000550EA76EAA0EA76EBF81AE0E006E0F0E5E
:1026B000016E020EE96E000EEA6EEE6A002EFDD784
:1026C000012EFBD7EA6AE96A2C6A370E0001B66F61
:1026D0000401BC6BBB6B0101886BFF0E0F01486FDF
:1026E000C29CC29E4951E00B1F09496F256BD16AFC
:1026F000D26A9B8C969096929694000E956E946EEC
:10270000070E926EF80E486FC29CC29E4951E00BB4
:102710001F09496FC150C00B0309C16EC19EC28021
:10272000C28EC282C2B2FED7C29E010E0401C86F21
:10273000000122EF0CF00401D26B000199EC0BF0C8
:102740000401BC6B040EBB6F1E0EF66E160EF76E08
:10275000000EF86E000187EC0CF0040E0401C86F47
:10276000C96FCB6BCA6F010ECC6FCD6F0001F9EC56
:102770000CF00401C86B0F0EC96F7F0ECA6F0F0EED
:10278000CB6F010ECC6F0001CDEC0DF00401BC6BE2
:10279000040EBB6F300EF66E160EF76E000EF86E5E
:1027A000000187EC0CF0040E0401C86F110EC96F14
:1027B000CB6B040ECA6F010ECC6FCD6F0001F9EC2C
:1027C0000CF00401C86B1C0EC96F7F0ECA6F1C0E83
:1027D000CB6F010ECC6F0001CDEC0DF00401BC6B92
:1027E000040EBB6F3E0EF66E160EF76E000EF86E00
:1027F000000187EC0CF0040E0401C86F1E0EC96FB7
:10280000CB6B040ECA6F010ECC6FCD6F0001F9ECDB
:102810000CF00401C86B290EC96F7F0ECA6F290E18
:10282000CB6F010ECC6F0001CDEC0DF00401BC6B41
:10283000040EBB6F4A0EF66E160EF76E000EF86EA3
:10284000000187EC0CF0040E0401C86F2A0EC96F5A
:10285000CB6B040ECA6F010ECC6FCD6F0001F9EC8B
:102860000CF00401C86B350EC96F7F0ECA6F350EB0
:10287000CB6F010ECC6F0001CDEC0DF0C6EC0BF070
:10288000020E0401C86F960EC96F00016AEC0EF0CB
:102890000401C82FF8D7D26B000199EC0BF0C6ECFD
:1028A0000BF07FEF0EF0C6EC0BF0020E0401C86FC8
:1028B000C80EC96F00016AEC0EF00401C82FF8D7EA
:1028C000D26B000199EC0BF0BA6BBABF03D0BA51CE
:1028D00077080BE3036ABA513D0FE96E000E03203F
:1028E000EA6E370EEF6EBA2BF0D70401D26B0001FF
:1028F00099EC0BF0C6EC0BF0000E016EC250C30B4E
:102900000110C26E640E0401C86F0001F6EC0EF0F7
:10291000C282C2B2FED7C4CF3AF0040E016EC250DA
:10292000C30B0110C26E640E0401C86F0001F6EC07
:102930000EF0C282C2B2FED7C4CF3BF0080E016EC9
:10294000C250C30B0110C26E640E0401C86F0001B7
:10295000F6EC0EF0C282C2B2FED7C4CF3CF03B50C0
:102960003A243C240401C96FCA6F030ECB6F0001E7
:1029700009EF0FF001500401C96BC86F000120EF8F
:102980000FF003C039F002C038F001C037F000C0CA
:1029900036F039C0D8F438C0D7F437C0D6F436C0D2
:1029A000D5F45F0E0401DC6F290EDB6F4B0EDA6F7E
:1029B000780ED96F00013CEC0FF003C031F002C07B
:1029C00030F001C02FF000C02EF031C0CBF430C089
:1029D000CAF42FC0C9F42EC0C8F40A0E0401CF6F88
:1029E000D70ECE6F230ECD6F780ECC6F0001B7ECF3
:1029F0000FF003C035F002C034F001C033F000C066
:102A000032F0040E0401BC6FC10EBB6F890EE96E7B
:102A100035C0CBF434C0CAF433C0C9F432C0C8F4F2
:102A2000020ECC6F0001D2EF10F01E0E0401C86F31
:102A3000C96B040ECB6FC10ECA6F010ECC6FCD6F88
:102A40000001F9EC0CF0C6EC0BF0070E0401C86FA6
:102A5000370EC96F7F0ECA6F370ECB6F010ECC6F6A
:102A60000001CDEC0DF0070E0401C86FC96BCA6FF1
:102A7000370ECB6F010ECC6F0001CDEC0DF00401D1
:102A8000BC6B040EBB6F740ED56F000177EC0CF0BD
:102A9000780E0401C86F390EC96FCB6B040ECA6F74
:102AA000010ECC6FCD6F0001F9EC0CF00401BC6B92
:102AB000040EBB6F540ED56F000177EC0CF00401CF
:102AC000C86BC96BCB6B040ECA6F010ECC6FCD6F98
:102AD0000001F9EC0CF039C0CBF438C0CAF437C0AF
:102AE000C9F436C0C8F40401CF6BCE6BCD6B800E39
:102AF000CC6F0001B7EC0FF0D8820401CB6BCA6B2E
:102B0000480EC96F840EC86F03C0CFF402C0CEF464
:102B100001C0CDF400C0CCF400011CD403C0CBF440
:102B200002C0CAF401C0C9F400C0C8F450D501C045
:102B3000B4F0B4C0B6F0B96BB9BF03D0B9517608E0
:102B400035E3036AB9513D0F016E000E032203C045
:102B5000C9F4010E0001B925036A3D0FE96E000EAC
:102B60000320EA6EEFCFCAF40401C9C4EAFF01C032
:102B7000E9FFCAC4EFFF080E0001B9250401C86FC0
:102B8000036A0001B9513D0FE96E000E0320EA6EA1
:102B9000EFCFC9F4C8C4D9F4C9C4DAF4010E0401F2
:102BA000DB6F00019BEC0CF0B92BC6D77F0E040144
:102BB000D96FB4C0DAF4010EDB6F00019BEC0CF0AE
:102BC000C6EC0BF00401CB6BCA6B0C0EC96F840E04
:102BD000C86F35C0CFF434C0CEF433C0CDF432C0AA
:102BE000CCF4000113D501E203E19296898602D06C
:102BF00092968996640E0401C96F00016AEC0EF08A
:102C00000401D26B000199EC0BF0C6EC0BF06DD611
:022C10000300BF
:020000040001F9
:08FFF8009AF73DFF61F880F962
:00000001FF
;PIC18F47J53
;CRC=CC89  CREATED="01-abr.-17 16:49"
